:100000000C942A000C9447000C9447000C94470071
:100010000C9447000C9447000C9447000C94470044
:100020000C9447000C9447000C9447000C94260253
:100030000C9447000C9447000C9447000C94470024
:100040000C9447000C9447000C9447000C94470014
:100050000C94470011241FBECFE5D4E0DEBFCDBF16
:1000600011E0A0E6B0E0E6E0F7E002C005900D92F6
:10007000A232B107D9F711E0A2E2B1E001C01D92AE
:10008000A337B107E1F70E94CC020C9481030C94D2
:100090000000109222011092230110922401EBE241
:1000A000F1E01192119281E0E335F807D1F708955C
:1000B0008091220190912301891719F4E0E0F0E08A
:1000C00021C0E82FF0E0EE0FFF1FE55DFE4F01902D
:1000D000F081E02D8F5F843109F480E0809322016C
:1000E000891749F480912501909126018E7F909384
:1000F00026018093250180912401882319F08150E5
:1001000080932401CF0108958091250180FF06C0CE
:100110000E945800FC01009709F0099508959C0180
:1001200040912401433110F080E008958091230133
:10013000E82FF0E0EE0FFF1FE55DFE4F31832083D7
:1001400020912501309126012160309326012093D2
:1001500025018F5F843109F480E0809323014F5F94
:100160004093240181E0089580E090E020E23EE4A5
:10017000F9013197F1F7019684369105C9F7089591
:10018000D09AD8980895D098D89A0895D19AD998A5
:100190000895D198D99A08958499FECF08958699A3
:1001A000FECF0895D09A8BB391E089278BBB80E175
:1001B00097E228EC30E0F9013197F1F70197D9F790
:1001C000D09A8BB391E089278BBB0895982F662333
:1001D00011F0DB9A01C0DB9820E030E0DC9A88B3B4
:1001E0008F7088BB892F94FDC49A85FDC59A86FDC2
:1001F000C69A97FDC79ADC982F5F3F4F2230310592
:1002000019F09295907FEACF85E88A95F1F70895E5
:100210000F931F9381E060E00E94E60000EA1FE078
:10022000C8010197F1F782E060E00E94E600C80192
:100230000197F1F71F910F91089587B3806F87BBE6
:100240008AB388618ABBDB98DC9A85E88A95F1F7E6
:1002500088B3806388BB88B38F7388BBDC9880E1E8
:1002600097E20197F1F7DC9A22E0822F8A95F1F765
:10027000DC9888EC90E0FC013197F1F7DC9A2A9544
:10028000F1F7DC98FC013197F1F7C498DC9ADC981F
:100290000197F1F788E260E00E94E60086E060E006
:1002A0000E94E6008CE060E00E94E6000E940801E7
:1002B0000895CF93DF93EC0104C0219661E00E9482
:1002C000E60088818823C9F7DF91CF910895629570
:1002D000660F660F607C680F862F806860E00E9462
:1002E000E6000895CF93DF93EC018436910580F00A
:1002F00064E670E00E944B03862F805D61E00E94FF
:10030000E600CE0164E670E00E944B03EC0108C0F9
:1003100064E670E00E944B03EC018A30910550F0D6
:10032000CE016AE070E00E944B03862F805D61E0A1
:100330000E94E600CE016AE070E00E944B03805DFF
:1003400061E00E94E600DF91CF910895EF92FF9265
:100350000F931F93DF93CF93CDB7DEB7C058D04034
:100360000FB6F894DEBF0FBECDBFDE011196E0E7F9
:10037000F0E080E801900D928150E1F780E460E0C8
:100380000E94E6008E010F5F1F4F81E8E82EF12CDE
:10039000EC0EFD1EF801808161E00E94E6000E5F18
:1003A0001F4F0E151F05B1F780E860E00E94E600C0
:1003B000C058DF4F0FB6F894DEBF0FBECDBFCF9150
:1003C000DF911F910F91FF90EF900895EF92FF92B0
:1003D0000F931F93DF93CF93CDB7DEB760970FB620
:1003E000F894DEBF0FBECDBFDE011196E0E6F0E06F
:1003F00080E101900D928150E1F780E460E00E947D
:10040000E6008E010F5F1F4F91E1E92EF12CEC0EFB
:10041000FD1EF801808161E00E94E6000E5F1F4F23
:100420000E151F05B1F780E860E00E94E6006096B7
:100430000FB6F894DEBF0FBECDBFCF91DF911F91F5
:100440000F91FF90EF900895789408951F920F9266
:100450000FB60F9211240F931F932F933F934F9337
:100460005F936F937F938F939F93AF93BF93EF931C
:10047000FF930CB1809127018A32B9F40A33A9F4B1
:100480008091290190912A01892B79F48091290189
:1004900090912A0120912701FC01ED5AFE4F208303
:1004A000019690932A0180932901809129019091CE
:1004B0002A01892BE1F08091290190912A01FC0108
:1004C000ED5AFE4F0083019690932A0180932901F3
:1004D0008091290190912A01809749F48091290106
:1004E00090912A01019790932A018093290180918C
:1004F00027018A33E1F50332D1F5809129019091EA
:100500002A010897A0F18091290190912A01FC010C
:10051000ED5AFE4F1082019690932A018093290193
:1005200010922A01109229018091550180538093E5
:100530005501809156018053809356018091550159
:10054000109156012AE0829FC0011124180F80915A
:100550002801181761F082ED90E00E948F000E9440
:10056000080188E591E00E94590110932801009349
:100570002701FF91EF91BF91AF919F918F917F9153
:100580006F915F914F913F912F911F910F910F901C
:100590000FBE0F901F9018958C98949A8E98969AEB
:1005A0000E941D0180EF90E00E94590180E061E00F
:1005B0000E94670181E091E00E9459010E94490078
:1005C00080EB94E00E94F1020E94240282E191E01B
:1005D0000E941D0383EC90E00E948F000E94840023
:1005E000FDCF9C0140E050E064E0220F331F441F28
:1005F000551F6A95D1F760E072E18AE790E00E94AA
:100600005F03C901DA010197A109B109292F3A2F26
:100610004B2F55270196A11DB11D20BD815089B9D1
:1006200088E98AB986E880BD08955D9BFECF8CB9C4
:1006300008955F9BFECF8CB10895FC0104C05D9BC3
:10064000FECF31968CB980818823C9F70895DC01EB
:10065000FC012FEF3FEF40E05EEF61E070EA808148
:10066000882309F45083819190E02827392780E07E
:100670003695279520FF02C0262737278F5F8830C1
:10068000B9F74F5F453059F715962C931597169685
:100690003C93C9010895AA1BBB1B51E107C0AA1FC7
:1006A000BB1FA617B70710F0A61BB70B881F991F13
:1006B0005A95A9F780959095BC01CD010895A1E2C6
:1006C0001A2EAA1BBB1BFD010DC0AA1FBB1FEE1FCC
:1006D000FF1FA217B307E407F50720F0A21BB30B17
:1006E000E40BF50B661F771F881F991F1A9469F793
:1006F00060957095809590959B01AC01BD01CF01EF
:060700000895F894FFCFFC
:100706000600060014001F000C000E000A0012006E
:10071600000000000E0001000F0011000F00030092
:10072600020004000E001000100011000E00000070
:10073600000000000E0011001F0010000E00030054
:100746000C00040006000C00040004000E0000006B
:10075600020004001600190011001100110000002B
:10076600020004000E001100110011000E0000002E
:10077600020004000E0010000E0001001E00000022
:10078600040000001F000200040008001F00000013
:1007960020202054657374204C43442020202020C0
:1007A6000020546F6D61737A204A6F6B69656C2007
:1007B600200048454C4C4F2041746D6567613136C9
:0207C600000031
:00000001FF
