:1000000012C02CC02BC02AC029C028C027C026C0BF
:1000100025C024C023C023C021C020C01FC01EC0D3
:100020001DC01CC01BC011241FBECFE5D4E0DEBF25
:10003000CDBF11E0A0E6B0E0E8EFF8E102C0059026
:100040000D92AA39B107D9F711E0AAE9B1E001C0D0
:100050001D92A73FB107E1F736D14CCCD1CF1F920B
:100060000F920FB60F921124FF920F931F932F93AD
:100070003F934F935F936F937F938F939F93AF9330
:10008000BF93EF93FF930CB180919D018A32B9F435
:100090000A33A9F480919E0190919F01892B79F4F4
:1000A00080919E0190919F0120919D01FC01E95258
:1000B000FE4F2083019690939F0180939E01809133
:1000C0009E0190919F01892BE1F080919E0190917A
:1000D0009F01FC01E952FE4F0083019690939F011E
:1000E00080939E0180919E0190919F01809749F499
:1000F00080919E0190919F01019790939F01809321
:100100009E0180919D018A3309F0C7C0033209F036
:10011000C4C080919E0190919F01069708F4BDC0D4
:1001200080919E0190919F01FC01E952FE4F108247
:10013000019690939F0180939E0110929F011092CF
:100140009E0180E690E067ED71E03CD9009741F4B4
:100150008AE690E0B8D200939D01B99AC1989FC0F9
:100160008091D901803509F098C08091DD018834F3
:1001700009F093C08091E101823509F08EC0809131
:10018000DA0180538093DA018091DB018053809300
:10019000DB018091DC0180538093DC016091DA0106
:1001A0002091DB014091DC0184E6F82E6F9DB001C7
:1001B00011241AE0219F90011124620F731F640F14
:1001C000711D80E090E014D62DEC3CEC4CEC5DE32E
:1001D00048D46093A0017093A1018093A2019093F1
:1001E000A3018091DE0180538093DE018091DF01C5
:1001F00080538093DF018091E00180538093E00180
:100200006091DE012091DF014091E0016F9DB0011E
:100210001124219F90011124620F731F640F711D1F
:100220007093AB016093AA0180E090E0E1D52DECE2
:100230003CEC4CEC5DE315D46093A4017093A501F4
:100240008093A6019093A7018091E201805380934F
:10025000E2018091E30180538093E3018091E40106
:1002600080538093E4018091E2012091E301409169
:10027000E4018F9DC0011124219F90011124820F60
:10028000931F840F911D9093A9018093A8018AE781
:1002900090E019D28CE392E06AD000939D01FF9127
:1002A000EF91BF91AF919F918F917F916F915F91EE
:1002B0004F913F912F911F910F91FF900F900FBE83
:1002C0000F901F9018958B98939A0CD080EB94E028
:1002D000CFD188EE91E04BD083EE92E048D0789475
:1002E0003CD0FECF1092AC011092AD011092AE0145
:1002F000EFEAF1E01192119281E0E73DF807D1F7C2
:1003000008958091AC019091AD01891719F4E0E056
:10031000F0E021C0E82FF0E0EE0FFF1FE155FE4FA7
:100320000190F081E02D8F5F843109F480E08093AB
:10033000AC01891749F480919A0190919B018E7FBD
:1003400090939B0180939A018091AE01882319F0CC
:1003500081508093AE01CF01089580919A0180FF72
:1003600005C0CFDFFC01009709F0099508959C01B5
:100370004091AE01433110F080E008958091AD01CD
:10038000E82FF0E0EE0FFF1FE155FE4F3183208391
:1003900020919A0130919B01216030939B01209321
:1003A0009A018F5F843109F480E08093AD014F5F43
:1003B0004093AE0181E0089580E090E020E23EE4C9
:1003C000F9013197F1F7019684369105C9F708953F
:1003D000B89AC09A0895B898C0980895B99AC198E3
:1003E0000895B998C19A0895A59AAD980895A598C9
:1003F000AD9A089520E030E060E971E040E45CE906
:10040000B89AC09ACB010197F1F7B898C098CA0181
:100410000197F1F72F5F3F4F2830310589F7089595
:1004200020E030E068ED7EE040E45CE9B89AC09AF4
:10043000CB010197F1F7B898C098CA010197F1F77D
:100440002F5F3F4F2D30310589F7089520E030E0D0
:1004500068E873E140E45CE9B89AC09ACB0101977F
:10046000F1F7B898C098CA010197F1F72F5F3F4F95
:100470002830310589F708958F929F92AF92BF92ED
:10048000CF92DF92EF92FF920F931F93CF93DF9360
:10049000C0E0D0E088EC882E912C7DC0B89AC09A3C
:1004A000A090A401B090A501C090A601D090A70192
:1004B000C601B50120E030E04AEF54E4D2D27B011E
:1004C0008C0120E030E040E85FE316D488231CF480
:1004D00061E070E01EC0C801B70120E03FEF4FE7C8
:1004E00057E4B4D3181694F4C601B50120E030E007
:1004F00040E251E4B6D2F1D005C0C4010197F1F752
:100500006150704061157105C1F706C0C801B7019F
:10051000E4D0CB010197F1F7B898C098A090A00162
:10052000B090A101C090A201D090A301C601B50175
:1005300020E030E04AEF54E494D27B018C0120E0CB
:1005400030E040E85FE3D8D388231CF461E070E03A
:100550001EC0C801B70120E03FEF4FE757E476D354
:10056000181694F4C601B50120E030E040E251E4F1
:1005700078D2B3D005C0C4010197F1F76150704043
:1005800061157105C1F706C0C801B701A6D0CB013E
:100590000197F1F721968091A8019091A901C817C0
:1005A000D90708F47BCFDF91CF911F910F91FF9076
:1005B000EF90DF90CF90BF90AF909F908F90089575
:1005C0008399FECF0895CF92DF92EF92FF920F931F
:1005D0001F93DF93CF93CDB7DEB7A8970FB6F894EC
:1005E000DEBF0FBECDBFFE01319688E2DF011D9256
:1005F0008A95E9F78AE07F0192E8C92E90E0D92E2A
:100600008399FECF082F10E08DB79EB708970FB6DD
:10061000F8949EBF0FBE8DBFEDB7FEB73196ADB754
:10062000BEB71196EC9211971296FC92D382C282B9
:100630001583048317830683CED68DB79EB708969D
:100640000FB6F8949EBF0FBE8DBFC7013CD0C70147
:100650003AD0C70138D0C70136D0C70134D0C8015D
:10066000019664E670E02ED68A3050F6865FC8CFD9
:100670009C0140E050E064E0220F331F441F551FEF
:100680006A95D1F760E072E18AE790E02ED6C90161
:10069000DA010197A109B109292F3A2F4B2F5527CC
:1006A0000196A11DB11D20BD815089B988E98AB983
:1006B00086E880BD08955D9BFECF8CB908955F9B51
:1006C000FECF8CB10895FC0104C05D9BFECF319636
:1006D0008CB980818823C9F70895EF92FF920F9318
:1006E0001F937B018C0120E030E040E05FE4D9D231
:1006F00088237CF0C801B70120E030E040E05FE4EF
:100700005ED125D39B01AC01205030404040504881
:1007100005C0C801B7011BD39B01AC01B901CA01D7
:100720001F910F91FF90EF900895A0E0B0E0EAE9EB
:10073000F3E011C6DC012B01FA019C91923008F420
:1007400039C1EB018881823008F433C1943069F4F7
:10075000843009F02FC111969C91119789819817C7
:1007600009F428C1A2E9B0E025C1843009F421C10F
:100770008230A9F4923009F01DC19A01AD0188E0E0
:10078000EA010990AE01E90109929E018150C1F789
:10079000E201898111969C918923818308C192305D
:1007A00009F407C112962D903C901397EB018A81B2
:1007B0009B811496AD90BD90CD90DC901797EC8006
:1007C000FD800E811F819101281B390BB90137FF74
:1007D00004C066277727621B730B603271050CF02B
:1007E00061C0121613066CF537014801062E04C0CD
:1007F00096948794779467940A94D2F721E030E036
:1008000040E050E004C0220F331F441F551F6A957B
:10081000D2F721503040404050402E213F2140230C
:100820005123211531054105510521F021E030E02A
:1008300040E050E079018A01E628F72808291929C3
:100840003CC0232BD1F1260E371E35014601062E62
:1008500004C096948794779467940A94D2F721E021
:1008600030E040E050E004C0220F331F441F551F0A
:100870006A95D2F721503040404050402A213B2118
:100880004C215D21211531054105510521F021E063
:1008900030E040E050E059016A01A628B728C82896
:1008A000D9280BC0821593052CF01C01AA24BB2467
:1008B000650103C0EE24FF24870111969C91D201AB
:1008C00011968C91981709F445C0992339F0A80125
:1008D00097012A193B094C095D0906C0A60195013B
:1008E0002E193F09400B510B57FD08C0118233826E
:1008F000228224833583468357831DC081E0818310
:100900003382228288279927DC01821B930BA40B58
:10091000B50B84839583A683B7830DC0220F331F45
:10092000441F551F248335834683578382819381D7
:100930000197938382832481358146815781DA012F
:10094000C9010197A109B1098F5F9F4FAF4FBF4305
:1009500028F30BC0918333822282EA0CFB1C0C1D0E
:100960001D1DE482F5820683178383E08083248142
:1009700035814681578157FF1AC0C901AA2797FDC3
:10098000A095BA2F81709070A070B0705695479561
:1009900037952795822B932BA42BB52B8483958396
:1009A000A683B78382819381019693838283DF013B
:1009B00001C0D201CD01CDB7DEB7E2E1E8C4A0E2CB
:1009C000B0E0E4EEF4E0D3C469837A838B839C8344
:1009D0002D833E834F835887E9E0EE2EF12CEC0EF9
:1009E000FD1ECE010196B7019CD38E010F5E1F4FF5
:1009F000CE010596B80195D38A8991E089278A8B23
:100A0000C701B801AE01475E5F4F8FDEB5D2A09639
:100A1000E6E0C9C4A0E2B0E0EFE0F5E0A8C4698375
:100A20007A838B839C832D833E834F835887F9E0A1
:100A3000EF2EF12CEC0EFD1ECE010196B70171D305
:100A40008E010F5E1F4FCE010596B8016AD3C70114
:100A5000B801AE01475E5F4F68DE8ED2A096E6E039
:100A6000A2C4A0E2B0E0E6E3F5E075C469837A834E
:100A70008B839C832D833E834F835887CE010196C1
:100A8000BE01675F7F4F4DD3CE010596BE016F5EFD
:100A90007F4F47D39985923088F089898230C8F09A
:100AA000943019F4823051F404C0843029F4923027
:100AB00081F482E990E0C6C0923049F420E09A8542
:100AC0008A89981321E02A87CE010996BBC082301B
:100AD00049F420E09A858A89981321E02A8BCE0177
:100AE0004196B0C02D843E844F8458886D887E889E
:100AF0008F88988CEE24FF248701AA24BB246501EB
:100B000040E050E060E070E0E0E0F0E0C1018170C2
:100B10009070892BE9F0E60CF71C081D191D9A014D
:100B2000AB012A0D3B1D4C1D5D1D80E090E0A0E057
:100B3000B0E0E614F7040805190520F481E090E020
:100B4000A0E0B0E0BA01A901480F591F6A1F7B1F3E
:100B5000AA0CBB1CCC1CDD1C97FE08C081E090E0F9
:100B6000A0E0B0E0A82AB92ACA2ADB2A3196E032EE
:100B7000F10549F0660C771C881C991C5694479423
:100B800037942794C3CFFA85EA892B893C898B85D2
:100B90009C85280F391F2E5F3F4F17C0CA018170F7
:100BA0009070892B61F016950795F794E79480E093
:100BB00090E0A0E0B0E8E82AF92A0A2B1B2B7695F2
:100BC0006795579547952F5F3F4F77FDE7CF0CC04F
:100BD000440F551F661F771F17FD4160EE0CFF1C69
:100BE000001F111F21503040403090E0590790E025
:100BF000690790E4790760F32B8F3C8FDB01CA0112
:100C00008F779070A070B07080349105A105B10508
:100C100061F447FD0AC0E114F1040105110529F052
:100C2000405C5F4F6F4F7F4F40781A8EFE1711F078
:100C300081E08A8F4D8F5E8F6F8F78A383E0898FDD
:100C4000CE01499699D1A096E2E1A1C3A8E1B0E016
:100C5000EBE2F6E08CC369837A838B839C832D83DC
:100C60003E834F83588789E0E82EF12CEC0EFD1E61
:100C7000CE010196B70155D28E010F5E1F4FCE01F6
:100C80000596B8014ED28985823038F08989823044
:100C900020F0C701B801BDD201C08FEF6896E6E031
:100CA00082C3A8E1B0E0E6E5F6E061C369837A8338
:100CB0008B839C832D833E834F83588789E0E82E66
:100CC000F12CEC0EFD1ECE010196B7012AD28E0149
:100CD0000F5E1F4FCE010596B80123D28985823061
:100CE00038F08989823020F0C701B80192D201C062
:100CF0008FEF6896E6E057C3A8E1B0E0E1E8F6E0E0
:100D000036C369837A838B839C832D833E834F8391
:100D1000588789E0E82EF12CEC0EFD1ECE010196DD
:100D2000B701FFD18E010F5E1F4FCE010596B801AE
:100D3000F8D18985823038F08989823020F0C70166
:100D4000B80167D201C081E06896E6E02CC3ACE050
:100D5000B0E0ECEAF6E00FC369837A838B839C836F
:100D6000CE010196BE016B5F7F4FDBD18D8182305A
:100D700061F1823050F1843021F48E81882351F169
:100D80002EC02F81388537FD20C06E812F3131056F
:100D90001CF06623F9F023C08EE190E0821B930BD8
:100DA00029853A854B855C8504C0569547953795CE
:100DB00027958A95D2F76623B1F0509540953095E6
:100DC00021953F4F4F4F5F4F0EC020E030E040E095
:100DD00050E009C02FEF3FEF4FEF5FE704C020E086
:100DE00030E040E050E8B901CA012C96E2E0DFC2F1
:100DF000A8E0B0E0EDEFF6E0B6C27B018C01611532
:100E000071058105910519F482E089835FC083E053
:100E100089838EE1C82ED12CDC82CB82ED82FE82CA
:100E20000F831887C801B70158D0FC013197F7FF2D
:100E30003BC0222733272E1B3F0B57016801022E90
:100E400004C0D694C794B794A7940A94D2F740E00C
:100E500050E060E070E081E090E0A0E0B0E004C02D
:100E6000880F991FAA1FBB1F2A95D2F70197A109C6
:100E7000B1098E219F21A023B1230097A105B105BF
:100E800021F041E050E060E070E04A295B296C29E4
:100E90007D294D835E836F8378878EE190E08E1B82
:100EA0009F0B9C838B8312C0309781F00E2E04C061
:100EB000EE0CFF1C001F111F0A94D2F7ED82FE8278
:100EC0000F831887CE1ADF0ADC82CB821A82CE010A
:100ED000019652D02896EAE062C2EF92FF920F93F9
:100EE0001F937B018C0180E0E81680E0F80681E02A
:100EF000080780E0180788F48FEFE816F104010571
:100F0000110531F028F088E090E0A0E0B0E017C0D3
:100F100080E090E0A0E0B0E012C080E0E81680E061
:100F2000F80680E0080781E0180728F088E190E0E3
:100F3000A0E0B0E004C080E190E0A0E0B0E020E2FA
:100F400030E040E050E0281B390B4A0B5B0B04C03B
:100F500016950795F794E7948A95D2F7F701E65628
:100F6000FF4F8081281B310941095109C9011F9197
:100F70000F91FF90EF900895DF92EF92FF920F9301
:100F80001F93FC01E480F58006811781D180808168
:100F9000823048F480E090E0A0E1B0E0E82AF92A4D
:100FA0000A2B1B2BA5C0843009F49FC0823021F48A
:100FB000EE24FF24870105C0E114F10401051105A9
:100FC00019F4E0E0F0E096C0628173819FEF62382F
:100FD00079070CF05BC022E83FEF261B370B2A3164
:100FE00031052CF020E030E040E050E02AC0B801AC
:100FF000A701022E04C076956795579547950A94E8
:10100000D2F781E090E0A0E0B0E004C0880F991F23
:10101000AA1FBB1F2A95D2F70197A109B1098E21FA
:101020009F21A023B1230097A105B10521F081E004
:1010300090E0A0E0B0E09A01AB01282B392B4A2BBD
:101040005B2BDA01C9018F779070A070B07080348B
:101050009105A105B10539F427FF09C0205C3F4F78
:101060004F4F5F4F04C0215C3F4F4F4F5F4FE0E059
:10107000F0E02030A0E03A07A0E04A07A0E45A07D9
:1010800010F0E1E0F0E079018A0127C060387105D5
:1010900064F5FB01E158FF4FD801C7018F779070CD
:1010A000A070B07080349105A105B10539F4E7FE58
:1010B0000DC080E490E0A0E0B0E004C08FE390E0D9
:1010C000A0E0B0E0E80EF91E0A1F1B1F17FF05C0C5
:1010D00016950795F794E794319687E0169507954E
:1010E000F794E7948A95D1F705C0EE24FF24870191
:1010F000EFEFF0E06E2F679566276795902F9F774B
:10110000D794DD24D7948E2F8695492F462B582FC0
:101110005D29B701CA011F910F91FF90EF90DF90F9
:101120000895FC01DB01408151812281622F6F779C
:1011300070E0221F2227221F9381892F880F822B84
:10114000282F30E0991F9927991F11969C9311978A
:1011500021153105A9F5411551056105710511F4F8
:1011600082E037C082E89FEF13969C938E9312978C
:101170009A01AB0167E0220F331F441F551F6A9588
:10118000D1F783E08C930DC0220F331F441F551FEE
:1011900012968D919C911397019713969C938E9321
:1011A0001297203080E0380780E0480780E4580735
:1011B00058F314962D933D934D935C931797089590
:1011C0002F3F310579F4411551056105710519F479
:1011D00084E08C93089564FF03C081E08C9312C077
:1011E0001C9210C02F57304013963C932E931297A9
:1011F00083E08C9387E0440F551F661F771F8A9505
:10120000D1F7706414964D935D936D937C9317970B
:1012100008951F93DC01FB019C91923008F447C0B4
:101220008081823008F443C0943051F411961C91AF
:10123000843099F58181682F70E0611B71093FC08E
:10124000843021F0923031F48230B9F181818823E9
:1012500089F12DC011961C9111978230F1F0818196
:101260001817D9F412962D913C911397828193818E
:101270008217930794F028173907BCF014968D91C4
:101280009D910D90BC91A02D24813581468157817F
:10129000281739074A075B0718F4112341F00AC0E1
:1012A00082179307A407B50740F4112319F061E0F2
:1012B00070E005C06FEF7FEF02C060E070E0CB012F
:1012C0001F91089597FB092E07260AD077FD04D0B9
:1012D0002ED006D000201AF4709561957F4F0895A6
:1012E000F6F7909581959F4F0895A1E21A2EAA1BBB
:1012F000BB1BFD010DC0AA1FBB1FEE1FFF1FA217C6
:10130000B307E407F50720F0A21BB30BE40BF50BC2
:10131000661F771F881F991F1A9469F7609570954B
:10132000809590959B01AC01BD01CF010895AA1B4A
:10133000BB1B51E107C0AA1FBB1FA617B70710F0C0
:10134000A61BB70B881F991F5A95A9F780959095F2
:10135000BC01CD0108952F923F924F925F926F9200
:101360007F928F929F92AF92BF92CF92DF92EF9235
:10137000FF920F931F93CF93DF93CDB7DEB7CA1BB6
:10138000DB0B0FB6F894DEBF0FBECDBF09942A88E1
:10139000398848885F846E847D848C849B84AA8489
:1013A000B984C884DF80EE80FD800C811B81AA8116
:1013B000B981CE0FD11D0FB6F894DEBF0FBECDBFE1
:1013C000ED010895FB01DC018D9101908019011060
:1013D000D9F3990B0895AEE0B0E0E0EFF9E0C9CFA2
:1013E0000D891E8986E08C831A8309838FEF9FE71E
:1013F0009E838D839E01275E3F4FCE0101966F89AC
:10140000788DA90109D02F813885020F131FF801AB
:1014100010822E96E4E0C9CFABE0B0E0E1E1FAE063
:101420009ACF3C012B015A01FC011782168283815D
:1014300081FD03C06FEF7FEFB9C19AE0892E1E01D5
:101440000894211C311CF3012381F20123FD8591B5
:1014500023FF81912F01882309F4A5C1853239F436
:1014600023FD859123FF81912F01853221F490E0A6
:10147000B301B6D1E8CF982FFF24EE249924FFE1E1
:10148000FF15D0F09B3269F09C3228F4903259F06D
:10149000933291F40EC09D3249F0903369F441E0EB
:1014A00024C052E0F52A84E0F82A28C098E0F92AFE
:1014B00025C0E0E1FE2A22C0F7FC29C0892F805315
:1014C0008A3070F4F6FE05C0989C902C1124980E7A
:1014D00015C0E89CE02C1124E80EF0E2FF2A0EC0B3
:1014E0009E3229F4F6FC5FC140E4F42A07C09C3622
:1014F00019F450E8F52A02C0983649F4F20123FDA8
:10150000959123FF91912F01992309F0B8CF892F4D
:101510008554833018F08052833038F444E050E032
:10152000A40EB51E5FE359830FC0933631F0933795
:1015300079F0933509F052C01FC0F501808189838D
:1015400042E050E0A40EB51E610101E010E011C0C0
:10155000F501C080D180F6FC03C06FEF7FEF02C0C1
:10156000692D70E042E050E0A40EB51EC6012DD1F9
:101570008C015FE7F52213C0F501C080D180F6FC35
:1015800003C06FEF7FEF02C0692D70E042E050E0D2
:10159000A40EB51EC6010ED18C0150E8F52AF3FE4B
:1015A00006C018C080E290E0B3011AD1EA948E2DF3
:1015B00090E008171907B0F30DC0F601F7FC85910C
:1015C000F7FE81916F0190E0B3010AD1E110EA9436
:1015D000015010400115110581F7E2C0943611F059
:1015E000993661F5F7FE08C0F5012081318142810D
:1015F000538184E090E00AC0F501808191819C01D3
:10160000442737FD4095542F82E090E0A80EB91E84
:101610009FE6F92257FF09C05095409530952195D6
:101620003F4F4F4F5F4FE0E8FE2ACA01B901A101C9
:101630002AE030E001D1D82ED2183FC0953729F4E6
:101640001F2D1F7E2AE030E01DC01F2D197F9F3601
:1016500061F0903720F4983509F0A5C00FC090379D
:1016600039F0983709F09FC004C028E030E00AC084
:10167000106114FD146020E130E004C014FD166018
:1016800020E132E017FF08C0F5016081718182819D
:10169000938144E050E008C0F50180819181BC0154
:1016A00080E090E042E050E0A40EB51EA101C4D05D
:1016B000D82ED2188FE7F82EF122F6FE0BC05EEF7F
:1016C000F522D91438F4F4FE07C0F2FC05C08FEE01
:1016D000F82202C01D2D01C0192DF4FE0DC0FE011F
:1016E000ED0DF11D8081803319F499EEF92208C0C7
:1016F0001F5FF2FE05C003C08F2D867809F01F5FC3
:101700000F2DF3FC13C0F0FE0EC01E1510F09D2C23
:101710000AC09D2C9E0C911A1E2D05C080E290E0FF
:10172000B3015ED01F5F1E15C8F304C01E1510F470
:10173000E11A01C0EE2404FF0EC080E390E0B30183
:101740004FD002FF1BC001FD03C088E790E00EC030
:1017500088E590E00BC0802F867881F001FF02C001
:101760008BE201C080E2F7FC8DE290E0B30138D05B
:1017700005C080E390E0B30133D09A94D914C8F344
:10178000DA94F101ED0DF11D808190E0B30128D0D4
:10179000DD20B1F705C080E290E0B30121D0EA94EA
:1017A000EE20C9F750CEF30166817781CB012B96ED
:1017B000E2E1EDCDFC010590615070400110D8F7D9
:1017C000809590958E0F9F1F0895FC016150704089
:1017D00001900110D8F7809590958E0F9F1F089566
:1017E0000F931F93CF93DF938C01EB018B8181FFCC
:1017F0001BC082FF0DC02E813F818C819D812817E7
:10180000390764F4E881F9810193F983E88306C01C
:10181000E885F985802F0995892B31F48E819F8188
:1018200001969F838E8302C00FEF1FEFC801DF91E7
:10183000CF911F910F910895FA01AA27283051F1F5
:10184000203181F1E8946F936E7F6E5F7F4F8F4FF1
:101850009F4FAF4FB1E03ED0B4E03CD0670F781F50
:10186000891F9A1FA11D680F791F8A1F911DA11D35
:101870006A0F711D811D911DA11D20D009F468946E
:101880003F912AE0269F11243019305D3193DEF616
:10189000CF010895462F4770405D4193B3E00FD0CC
:1018A000C9F7F6CF462F4F70405D4A3318F0495DB7
:1018B00031FD4052419302D0A9F7EACFB4E0A6959A
:1018C0009795879577956795BA95C9F700976105BC
:1018D000710508959B01AC010A2E06945795479512
:1018E00037952795BA95C9F7620F731F841F951F07
:0818F000A01D0895F894FFCF3C
:1018F8002A3A53544152543A23002A3A53455256ED
:101908004F5F52454144593A23002A3A41434B3AE2
:1019180023002A3A256423546F6D656B2025643AA9
:101928002300000000000000000000010202030381
:10193800030304040404040404040505050505055B
:101948000505050505050505050506060606060639
:10195800060606060606060606060606060606061F
:101968000606060606060606060607070707070709
:1019780007070707070707070707070707070707EF
:1019880007070707070707070707070707070707DF
:1019980007070707070707070707070707070707CF
:1019A80007070707070707070707080808080808B9
:1019B800080808080808080808080808080808089F
:1019C800080808080808080808080808080808088F
:1019D800080808080808080808080808080808087F
:1019E800080808080808080808080808080808086F
:1019F800080808080808080808080808080808085F
:101A0800080808080808080808080808080808084E
:101A1800080808080808080808080808080808083E
:0A1A28000808080808080808080864
:00000001FF
