:1000000012C02CC02BC02AC029C028C027C026C0BF
:1000100025C024C023C023C021C020C01FC01EC0D3
:100020001DC01CC01BC011241FBECFE5D4E0DEBF25
:10003000CDBF11E0A0E6B0E0E4EEF8E102C005902B
:100040000D92A839B107D9F711E0A8E9B1E001C0D4
:100050001D92A53FB107E1F7B9D142CCD1CF1F9294
:100060000F920FB60F921124CF92DF92EF92FF9270
:100070000F931F932F933F934F935F936F937F93B0
:100080008F939F93AF93BF93EF93FF93DF93CF93A0
:10009000CDB7DEB72A97DEBFCDBFDCB080919B0124
:1000A0008A32C1F48AE3D816A9F480919C01909118
:1000B0009D01892B79F480919C0190919D01209163
:1000C0009B01FC01EB52FE4F2083019690939D0112
:1000D00080939C0180919C0190919D01892BE1F07E
:1000E00080919C0190919D01FC01EB52FE4FD082CA
:1000F000019690939D0180939C0180919C01909129
:100100009D01809749F480919C0190919D010197F8
:1001100090939D0180939C0180919B018A3309F00B
:1001200037C193E2D91609F033C180919C019091B7
:100130009D010B9708F42CC180919C0190919D0129
:10014000FC01EB52FE4F1082019690939D0180932B
:100150009C018AE0C82E7E010894E11CF11CD701A5
:10016000EC2D1D92EA95E9F785ED91E0D2D210923F
:100170009D0110929C018091D701803509F055C0F6
:1001800080E690E0C6D28091D80180538093D80158
:100190008091D90180538093D9018091DA018053F5
:1001A0008093DA010091D8018091D9013091DA0170
:1001B00024E6029F800111248C9DC0011124080FA8
:1001C000191F030F111D1093A9010093A801B80175
:1001D00080E090E033D62DEC3CEC4CEC5DE367D452
:1001E00060939E0170939F018093A0019093A10161
:1001F00000D000D000D0EDB7FEB73196ADB7BEB796
:100200001296FC92EE9211978AE690E09383828395
:1002100015830483D6D8EDB7FEB736960FB6F8949B
:10022000FEBF0FBEEDBFC70174D28091DB018834E1
:1002300009F05AC08EE690E06CD28091DC018053C8
:100240008093DC018091DD0180538093DD018091FA
:10025000DE0180538093DE010091DC018091DD019D
:100260003091DE0124E6029F800111242AE0829F62
:10027000C0011124080F191F030F111D1093A901AC
:100280000093A801B80180E090E0D8D52DEC3CECBB
:100290004CEC5DE30CD46093A2017093A3018093B6
:1002A000A4019093A50100D000D000D0EDB7FEB717
:1002B00031967E010894E11CF11CADB7BEB71296D1
:1002C000FC92EE9211978AE690E0938382831583E5
:1002D000048377D8EDB7FEB736960FB6F894FEBF15
:1002E0000FBEEDBFC70115D28091DF01823509F045
:1002F0004FC086E790E00DD28091E001805380935B
:10030000E0018091E10180538093E1018091E2015D
:1003100080538093E2018091E0012091E1015091AE
:10032000E20144E6849FC00111244AE0249F900129
:100330001124820F931F850F911D9093A701809325
:10034000A6012091A6013091A70100D000D000D0D5
:10035000EDB7FEB731968E010F5F1F4FADB7BEB739
:1003600012961C930E9311978AE690E093838283F2
:100370003583248326D8EDB7FEB736960FB6F894AA
:10038000FEBF0FBEEDBFC801C4D18AEB92E06DD0B5
:10039000D0929B012A96DEBFCDBFCF91DF91FF9116
:1003A000EF91BF91AF919F918F917F916F915F91ED
:1003B0004F913F912F911F910F91FF90EF90DF9000
:1003C000CF900F900FBE0F901F90189509D080E826
:1003D00095E274D1789482E890E09BD13CD0FECF36
:1003E0001092AA011092AB011092AC01EDEAF1E07B
:1003F0001192119281E0E53DF807D1F708958091BF
:10040000AA019091AB01891719F4E0E0F0E021C056
:10041000E82FF0E0EE0FFF1FE355FE4F0190F08153
:10042000E02D8F5F843109F480E08093AA01891761
:1004300049F480919801909199018E7F9093990150
:10044000809398018091AC01882319F081508093AA
:10045000AC01CF0108958091980180FF05C0CFDFE6
:10046000FC01009709F0099508959C014091AC01A9
:10047000433110F080E008958091AB01E82FF0E067
:10048000EE0FFF1FE355FE4F31832083209198012B
:1004900030919901216030939901209398018F5FE9
:1004A000843109F480E08093AB014F5F4093AC014D
:1004B00081E0089580E090E020E23EE4F901319788
:1004C000F1F7019684369105C9F70895B89AC09A54
:1004D0000895B898C0980895B99AC1980895B998A0
:1004E000C19A0895A59AAD980895A598AD9A0895D2
:1004F00020E030E060E971E040E45CE9B89AC09A3D
:10050000CB010197F1F7B898C098CA010197F1F7AC
:100510002F5F3F4F2830310589F7089520E030E004
:1005200068ED7EE040E45CE9B89AC09ACB0101979F
:10053000F1F7B898C098CA010197F1F72F5F3F4FC4
:100540002D30310589F7089520E030E068E873E147
:1005500040E45CE9B89AC09ACB010197F1F7B898EA
:10056000C098CA010197F1F72F5F3F4F283031053E
:1005700089F708958F929F92AF92BF92CF92DF92A8
:10058000EF92FF920F931F93CF93DF93C0E0D0E0E1
:1005900088EC882E912C7DC0B89AC09AA090A201B8
:1005A000B090A301C090A401D090A501C601B501EF
:1005B00020E030E04AEF54E47AD27B018C0120E065
:1005C00030E040E85FE3BED388231CF461E070E0D4
:1005D0001EC0C801B70120E03FEF4FE757E45CD3EE
:1005E000181694F4C601B50120E030E040E251E471
:1005F0005ED299D005C0C4010197F1F761507040F7
:1006000061157105C1F706C0C801B7018CD0CB01D7
:100610000197F1F7B898C098A0909E01B0909F0103
:10062000C090A001D090A101C601B50120E030E04A
:100630004AEF54E43CD27B018C0120E030E040E8FA
:100640005FE380D388231CF461E070E01EC0C80122
:10065000B70120E03FEF4FE757E41ED3181694F49C
:10066000C601B50120E030E040E251E420D25BD089
:1006700005C0C4010197F1F7615070406115710523
:10068000C1F706C0C801B7014ED0CB010197F1F701
:1006900021968091A6019091A701C817D90708F467
:1006A0007BCFDF91CF911F910F91FF90EF90DF9063
:1006B000CF90BF90AF909F908F9008959C0140E0A5
:1006C00050E064E0220F331F441F551F6A95D1F795
:1006D00060E072E18AE790E01BD6C901DA01019778
:1006E000A109B109292F3A2F4B2F55270196A11D9A
:1006F000B11D20BD815089B988E98AB986E880BDDD
:1007000008955D9BFECF8CB908955F9BFECF8CB1A1
:100710000895FC0104C05D9BFECF31968CB98081A9
:100720008823C9F70895EF92FF920F931F937B01DF
:100730008C0120E030E040E05FE4D9D288237CF0F7
:10074000C801B70120E030E040E05FE45ED125D38E
:100750009B01AC01205030404040504805C0C801CA
:10076000B7011BD39B01AC01B901CA011F910F91C5
:10077000FF90EF900895A0E0B0E0E0ECF3E0EAC570
:10078000DC012B01FA019C91923008F439C1EB0194
:100790008881823008F433C1943069F4843009F0E0
:1007A0002FC111969C9111978981981709F428C13E
:1007B000AFE8B0E025C1843009F421C18230A9F44A
:1007C000923009F01DC19A01AD0188E0EA0109905B
:1007D000AE01E90109929E018150C1F7E2018981D0
:1007E00011969C918923818308C1923009F407C135
:1007F00012962D903C901397EB018A819B81149661
:10080000AD90BD90CD90DC901797EC80FD800E816F
:100810001F819101281B390BB90137FF04C06627DE
:100820007727621B730B603271050CF061C01216E2
:1008300013066CF537014801062E04C09694879480
:10084000779467940A94D2F721E030E040E050E0DA
:1008500004C0220F331F441F551F6A95D2F7215041
:100860003040404050402E213F214023512321154C
:1008700031054105510521F021E030E040E050E034
:1008800079018A01E628F728082919293CC0232B79
:10089000D1F1260E371E35014601062E04C096946E
:1008A0008794779467940A94D2F721E030E040E08F
:1008B00050E004C0220F331F441F551F6A95D2F722
:1008C00021503040404050402A213B214C215D21A5
:1008D000211531054105510521F021E030E040E0CE
:1008E00050E059016A01A628B728C828D9280BC0AA
:1008F000821593052CF01C01AA24BB24650103C0BA
:10090000EE24FF24870111969C91D20111968C91BF
:10091000981709F445C0992339F0A80197012A19BD
:100920003B094C095D0906C0A60195012E193F0936
:10093000400B510B57FD08C0118233822282248361
:100940003583468357831DC081E0818333822282B1
:1009500088279927DC01821B930BA40BB50B84839A
:100960009583A683B7830DC0220F331F441F551FE5
:1009700024833583468357838281938101979383B0
:1009800082832481358146815781DA01C90101972B
:10099000A109B1098F5F9F4FAF4FBF4328F30BC031
:1009A000918333822282EA0CFB1C0C1D1D1DE48204
:1009B000F5820683178383E0808324813581468115
:1009C000578157FF1AC0C901AA2797FDA095BA2FD2
:1009D00081709070A070B0705695479537952795A7
:1009E000822B932BA42BB52B84839583A683B7836B
:1009F00082819381019693838283DF0101C0D201BA
:100A0000CD01CDB7DEB7E2E1C1C4A0E2B0E0EAE0DB
:100A1000F5E0ACC469837A838B839C832D833E830A
:100A20004F835887E9E0EE2EF12CEC0EFD1ECE012F
:100A30000196B7019CD38E010F5E1F4FCE01059624
:100A4000B80195D38A8991E089278A8BC701B801BB
:100A5000AE01475E5F4F8FDEB5D2A096E6E0A2C43E
:100A6000A0E2B0E0E5E3F5E081C469837A838B839B
:100A70009C832D833E834F835887F9E0EF2EF12C22
:100A8000EC0EFD1ECE010196B70171D38E010F5EF3
:100A90001F4FCE010596B8016AD3C701B801AE0158
:100AA000475E5F4F68DE8ED2A096E6E07BC4A0E290
:100AB000B0E0ECE5F5E04EC469837A838B839C83D8
:100AC0002D833E834F835887CE010196BE01675F19
:100AD0007F4F4DD3CE010596BE016F5E7F4F47D34A
:100AE0009985923088F089898230C8F0943019F461
:100AF000823051F404C0843029F4923081F48FE8BC
:100B000090E0C6C0923049F420E09A858A89981313
:100B100021E02A87CE010996BBC0823049F420E04B
:100B20009A858A89981321E02A8BCE014196B0C01C
:100B30002D843E844F8458886D887E888F88988C59
:100B4000EE24FF248701AA24BB24650140E050E085
:100B500060E070E0E0E0F0E0C10181709070892B0E
:100B6000E9F0E60CF71C081D191D9A01AB012A0DCE
:100B70003B1D4C1D5D1D80E090E0A0E0B0E0E61460
:100B8000F7040805190520F481E090E0A0E0B0E04A
:100B9000BA01A901480F591F6A1F7B1FAA0CBB1C71
:100BA000CC1CDD1C97FE08C081E090E0A0E0B0E026
:100BB000A82AB92ACA2ADB2A3196E032F10549F07F
:100BC000660C771C881C991C56944794379427947C
:100BD000C3CFFA85EA892B893C898B859C85280FB0
:100BE000391F2E5F3F4F17C0CA0181709070892B4B
:100BF00061F016950795F794E79480E090E0A0E007
:100C0000B0E8E82AF92A0A2B1B2B769567955795A9
:100C100047952F5F3F4F77FDE7CF0CC0440F551F1F
:100C2000661F771F17FD4160EE0CFF1C001F111F90
:100C300021503040403090E0590790E0690790E43F
:100C4000790760F32B8F3C8FDB01CA018F7790709F
:100C5000A070B07080349105A105B10561F447FD25
:100C60000AC0E114F1040105110529F0405C5F4F51
:100C70006F4F7F4F40781A8EFE1711F081E08A8FF8
:100C80004D8F5E8F6F8F78A383E0898FCE01499659
:100C900099D1A096E2E17AC3A8E1B0E0E1E5F6E0FF
:100CA00065C369837A838B839C832D833E834F83C3
:100CB000588789E0E82EF12CEC0EFD1ECE0101963E
:100CC000B70155D28E010F5E1F4FCE010596B801B8
:100CD0004ED28985823038F08989823020F0C70170
:100CE000B801BDD201C08FEF6896E6E05BC3A8E112
:100CF000B0E0ECE7F6E03AC369837A838B839C83A8
:100D00002D833E834F83588789E0E82EF12CEC0E2B
:100D1000FD1ECE010196B7012AD28E010F5E1F4F34
:100D2000CE010596B80123D28985823038F08989B1
:100D3000823020F0C701B80192D201C08FEF6896CF
:100D4000E6E030C3A8E1B0E0E7EAF6E00FC369836C
:100D50007A838B839C832D833E834F83588789E0DE
:100D6000E82EF12CEC0EFD1ECE010196B701FFD14D
:100D70008E010F5E1F4FCE010596B801F8D189850F
:100D8000823038F08989823020F0C701B80167D2FB
:100D900001C081E06896E6E005C3ACE0B0E0E2EDBA
:100DA000F6E0E8C269837A838B839C83CE01019647
:100DB000BE016B5F7F4FDBD18D81823061F182306C
:100DC00050F1843021F48E81882351F12EC02F817F
:100DD000388537FD20C06E812F3131051CF0662328
:100DE000F9F023C08EE190E0821B930B29853A85B0
:100DF0004B855C8504C056954795379527958A9510
:100E0000D2F76623B1F050954095309521953F4F2C
:100E10004F4F5F4F0EC020E030E040E050E009C08F
:100E20002FEF3FEF4FEF5FE704C020E030E040E0FE
:100E300050E8B901CA012C96E2E0B8C2A8E0B0E0DF
:100E4000E3E2F7E08FC27B018C016115710581053A
:100E5000910519F482E089835FC083E089838EE184
:100E6000C82ED12CDC82CB82ED82FE820F831887C4
:100E7000C801B70158D0FC013197F7FF3BC02227CA
:100E800033272E1B3F0B57016801022E04C0D69456
:100E9000C794B794A7940A94D2F740E050E060E07A
:100EA00070E081E090E0A0E0B0E004C0880F991FFE
:100EB000AA1FBB1F2A95D2F70197A109B1098E215C
:100EC0009F21A023B1230097A105B10521F041E0A6
:100ED00050E060E070E04A295B296C297D294D8350
:100EE0005E836F8378878EE190E08E1B9F0B9C83DF
:100EF0008B8312C0309781F00E2E04C0EE0CFF1CC5
:100F0000001F111F0A94D2F7ED82FE820F8318870B
:100F1000CE1ADF0ADC82CB821A82CE01019652D031
:100F20002896EAE03BC2EF92FF920F931F937B015A
:100F30008C0180E0E81680E0F80681E0080780E098
:100F4000180788F48FEFE816F1040105110531F058
:100F500028F088E090E0A0E0B0E017C080E090E0EA
:100F6000A0E0B0E012C080E0E81680E0F80680E083
:100F7000080781E0180728F088E190E0A0E0B0E0E1
:100F800004C080E190E0A0E0B0E020E230E040E08A
:100F900050E0281B390B4A0B5B0B04C016950795D4
:100FA000F794E7948A95D2F7F701E956FF4F8081CD
:100FB000281B310941095109C9011F910F91FF9067
:100FC000EF900895DF92EF92FF920F931F93FC0131
:100FD000E480F58006811781D1808081823048F4D9
:100FE00080E090E0A0E1B0E0E82AF92A0A2B1B2B70
:100FF000A5C0843009F49FC0823021F4EE24FF2480
:10100000870105C0E114F1040105110519F4E0E0C0
:10101000F0E096C0628173819FEF623879070CF02F
:101020005BC022E83FEF261B370B2A3131052CF03D
:1010300020E030E040E050E02AC0B801A701022ED5
:1010400004C076956795579547950A94D2F781E045
:1010500090E0A0E0B0E004C0880F991FAA1FBB1F5A
:101060002A95D2F70197A109B1098E219F21A023CA
:10107000B1230097A105B10521F081E090E0A0E047
:10108000B0E09A01AB01282B392B4A2B5B2BDA01FC
:10109000C9018F779070A070B07080349105A10560
:1010A000B10539F427FF09C0205C3F4F4F4F5F4F18
:1010B00004C0215C3F4F4F4F5F4FE0E0F0E0203035
:1010C000A0E03A07A0E04A07A0E45A0710F0E1E0E8
:1010D000F0E079018A0127C06038710564F5FB01F1
:1010E000E158FF4FD801C7018F779070A070B070A2
:1010F00080349105A105B10539F4E7FE0DC080E407
:1011000090E0A0E0B0E004C08FE390E0A0E0B0E0A9
:10111000E80EF91E0A1F1B1F17FF05C0169507953D
:10112000F794E794319687E016950795F794E7943E
:101130008A95D1F705C0EE24FF248701EFEFF0E098
:101140006E2F679566276795902F9F77D794DD243C
:10115000D7948E2F8695492F462B582F5D29B7019E
:10116000CA011F910F91FF90EF90DF900895FC014D
:10117000DB01408151812281622F6F7770E0221F55
:101180002227221F9381892F880F822B282F30E05E
:10119000991F9927991F11969C9311972115310535
:1011A000A9F5411551056105710511F482E037C0BB
:1011B00082E89FEF13969C938E9312979A01AB014E
:1011C00067E0220F331F441F551F6A95D1F783E054
:1011D0008C930DC0220F331F441F551F12968D9103
:1011E0009C911397019713969C938E93129720309E
:1011F00080E0380780E0480780E4580758F31496E9
:101200002D933D934D935C93179708952F3F310590
:1012100079F4411551056105710519F484E08C9349
:10122000089564FF03C081E08C9312C01C9210C02B
:101230002F57304013963C932E93129783E08C9354
:1012400087E0440F551F661F771F8A95D1F770649A
:1012500014964D935D936D937C93179708951F9308
:10126000DC01FB019C91923008F447C08081823000
:1012700008F443C0943051F411961C91843099F5D0
:101280008181682F70E0611B71093FC0843021F0BB
:10129000923031F48230B9F18181882389F12DC0F7
:1012A00011961C9111978230F1F081811817D9F4B1
:1012B00012962D913C911397828193818217930707
:1012C00094F028173907BCF014968D919D910D90DC
:1012D000BC91A02D2481358146815781281739077B
:1012E0004A075B0718F4112341F00AC082179307DD
:1012F000A407B50740F4112319F061E070E005C0C0
:101300006FEF7FEF02C060E070E0CB011F910895A6
:10131000A1E21A2EAA1BBB1BFD010DC0AA1FBB1FF9
:10132000EE1FFF1FA217B307E407F50720F0A21B6B
:10133000B30BE40BF50B661F771F881F991F1A94D8
:1013400069F760957095809590959B01AC01BD0102
:10135000CF0108952F923F924F925F926F927F92AA
:101360008F929F92AF92BF92CF92DF92EF92FF92B5
:101370000F931F93CF93DF93CDB7DEB7CA1BDB0B61
:101380000FB6F894DEBF0FBECDBF09942A88398806
:1013900048885F846E847D848C849B84AA84B9840D
:1013A000C884DF80EE80FD800C811B81AA81B98119
:1013B000CE0FD11D0FB6F894DEBF0FBECDBFED012D
:1013C0000895AEE0B0E0E6EEF9E0D2CF0D891E89D7
:1013D00086E08C831A8309838FEF9FE79E838D833A
:1013E0009E01275E3F4FCE0101966F89788DA9013E
:1013F00009D02F813885020F131FF80110822E9615
:10140000E4E0D2CFABE0B0E0E7E0FAE0A3CF3C010C
:101410002B015A01FC0117821682838181FD03C0D2
:101420006FEF7FEFB9C19AE0892E1E010894211C4D
:10143000311CF3012381F20123FD859123FF81916A
:101440002F01882309F4A5C1853239F423FD859144
:1014500023FF81912F01853221F490E0B301B6D1B1
:10146000E8CF982FFF24EE249924FFE1FF15D0F058
:101470009B3269F09C3228F4903259F0933291F407
:101480000EC09D3249F0903369F441E024C052E02F
:10149000F52A84E0F82A28C098E0F92A25C0E0E17E
:1014A000FE2A22C0F7FC29C0892F80538A3070F4AD
:1014B000F6FE05C0989C902C1124980E15C0E89C4F
:1014C000E02C1124E80EF0E2FF2A0EC09E3229F42F
:1014D000F6FC5FC140E4F42A07C09C3619F450E8DA
:1014E000F52A02C0983649F4F20123FD959123FFB5
:1014F00091912F01992309F0B8CF892F855483301A
:1015000018F08052833038F444E050E0A40EB51E49
:101510005FE359830FC0933631F0933779F09335F9
:1015200009F052C01FC0F5018081898342E050E07C
:10153000A40EB51E610101E010E011C0F501C080EC
:10154000D180F6FC03C06FEF7FEF02C0692D70E021
:1015500042E050E0A40EB51EC6012DD18C015FE71C
:10156000F52213C0F501C080D180F6FC03C06FEFF7
:101570007FEF02C0692D70E042E050E0A40EB51E7E
:10158000C6010ED18C0150E8F52AF3FE06C018C042
:1015900080E290E0B3011AD1EA948E2D90E0081712
:1015A0001907B0F30DC0F601F7FC8591F7FE8191A4
:1015B0006F0190E0B3010AD1E110EA9401501040AC
:1015C0000115110581F7E2C0943611F0993661F5E5
:1015D000F7FE08C0F501208131814281538184E00A
:1015E00090E00AC0F501808191819C01442737FD7C
:1015F0004095542F82E090E0A80EB91E9FE6F92294
:1016000057FF09C050954095309521953F4F4F4F5A
:101610005F4FE0E8FE2ACA01B901A1012AE030E0EB
:1016200001D1D82ED2183FC0953729F41F2D1F7E27
:101630002AE030E01DC01F2D197F9F3661F09037E2
:1016400020F4983509F0A5C00FC0903739F09837CD
:1016500009F09FC004C028E030E00AC0106114FD0A
:10166000146020E130E004C014FD166020E132E097
:1016700017FF08C0F501608171818281938144E088
:1016800050E008C0F50180819181BC0180E090E0CC
:1016900042E050E0A40EB51EA101C4D0D82ED2184D
:1016A0008FE7F82EF122F6FE0BC05EEFF522D9147B
:1016B00038F4F4FE07C0F2FC05C08FEEF82202C039
:1016C0001D2D01C0192DF4FE0DC0FE01ED0DF11D03
:1016D0008081803319F499EEF92208C01F5FF2FE71
:1016E00005C003C08F2D867809F01F5F0F2DF3FC16
:1016F00013C0F0FE0EC01E1510F09D2C0AC09D2CCC
:101700009E0C911A1E2D05C080E290E0B3015ED0C0
:101710001F5F1E15C8F304C01E1510F4E11A01C0A6
:10172000EE2404FF0EC080E390E0B3014FD002FF2F
:101730001BC001FD03C088E790E00EC088E590E083
:101740000BC0802F867881F001FF02C08BE201C0C0
:1017500080E2F7FC8DE290E0B30138D005C080E371
:1017600090E0B30133D09A94D914C8F3DA94F1011C
:10177000ED0DF11D808190E0B30128D0DD20B1F79F
:1017800005C080E290E0B30121D0EA94EE20C9F7D1
:1017900050CEF30166817781CB012B96E2E1F6CD45
:1017A000FC010590615070400110D8F7809590952C
:1017B0008E0F9F1F0895FC01615070400190011031
:1017C000D8F7809590958E0F9F1F08950F931F93C4
:1017D000CF93DF938C01EB018B8181FF1BC082FFD4
:1017E0000DC02E813F818C819D812817390764F4BB
:1017F000E881F9810193F983E88306C0E885F985DA
:10180000802F0995892B31F48E819F8101969F83CA
:101810008E8302C00FEF1FEFC801DF91CF911F91A0
:101820000F910895FA01AA27283051F1203181F152
:10183000E8946F936E7F6E5F7F4F8F4F9F4FAF4FD8
:10184000B1E03ED0B4E03CD0670F781F891F9A1FEB
:10185000A11D680F791F8A1F911DA11D6A0F711D9F
:10186000811D911DA11D20D009F468943F912AE0AB
:10187000269F11243019305D3193DEF6CF01089593
:10188000462F4770405D4193B3E00FD0C9F7F6CFC4
:10189000462F4F70405D4A3318F0495D31FD40528C
:1018A000419302D0A9F7EACFB4E0A6959795879522
:1018B00077956795BA95C9F7009761057105089501
:1018C0009B01AC010A2E06945795479537952795AD
:1018D000BA95C9F7620F731F841F951FA01D089545
:0418E000F894FFCFAA
:1018E400506572696F64203D2000256420004849DA
:1018F4004748203D20005265706561746572203D43
:10190400200053797374656D205245414459000099
:1019140000000000000000000102020303030304AE
:10192400040404040404040505050505050505056A
:10193400050505050505050606060606060606064A
:101944000606060606060606060606060606060633
:10195400060606060606060707070707070707071A
:101964000707070707070707070707070707070703
:1019740007070707070707070707070707070707F3
:1019840007070707070707070707070707070707E3
:1019940007070707070707080808080808080808CA
:1019A40008080808080808080808080808080808B3
:1019B40008080808080808080808080808080808A3
:1019C4000808080808080808080808080808080893
:1019D4000808080808080808080808080808080883
:1019E4000808080808080808080808080808080873
:1019F4000808080808080808080808080808080863
:101A04000808080808080808080808080808080852
:081A1400080808080808080092
:00000001FF
