:1000000012C021C020C01FC01EC01DC01CC01BC00C
:100010001AC019C018C017C016C015C014C013C02C
:1000200012C011C010C011241FBECFE5D4E0DEBF46
:10003000CDBF10E0A0E6B0E001C01D92AD38B10721
:10004000E1F702D0B6C0DCCFB89AC09AB99AC1988D
:10005000A59AAD9826D08BEB90E068D08BEB90E022
:1000600065D08BEB90E062D080ED90E05FD08BEBC1
:1000700090E05CD086ED90E059D08BEB90E056D0CC
:1000800087EC90E053D08BEB90E050D08DEC90E07B
:100090004DD08BEB90E04AD083ED90E047D03CD040
:1000A000FECF109262001092630010926400E5E6A9
:1000B000F0E01192119280E0ED38F807D1F7089541
:1000C0008091620090916300891719F4E0E0F0E0FC
:1000D00021C0E82FF0E0EE0FFF1FEB59FF4F01901A
:1000E000F081E02D8F5F843109F480E0809362001D
:1000F000891749F480916000909161008E7F909300
:1001000061008093600080916400882319F0815021
:1001100080936400CF0108958091600080FF05C046
:10012000CFDFFC01009709F0099508959C014091EB
:100130006400433110F080E0089580916300E82F5F
:10014000F0E0EE0FFF1FEB59FF4F3183208320912A
:100150006000309161002160309361002093600065
:100160008F5F843109F480E0809363004F5F409398
:10017000640081E0089580E090E020E23EE4F9012F
:100180003197F1F7019684369105C9F70895B89A29
:10019000C09A0895B898C0980895B99AC1980895DA
:1001A000B998C19A0895A59AAD980895A598AD9A61
:0601B0000895F894FFCF52
:00000001FF
