:1000000012C02CC02BC02AC029C028C027C026C0BF
:1000100025C024C023C023C021C020C01FC01EC0D3
:100020001DC01CC01BC011241FBECFE5D4E0DEBF25
:10003000CDBF11E0A0E6B0E0E6E0FBE002C0059035
:100040000D92AA39B107D9F711E0AAE9B1E001C0D0
:100050001D92AC3CB107E1F758D153C5D1CF1F92E7
:100060000F920FB60F9211241F932F933F934F932C
:100070005F936F937F938F939F93AF93BF93EF9310
:10008000FF93B89A88B391E0892788BB1CB180910F
:100090009B018A32B9F41A33A9F480919C019091A2
:1000A0009D01892B79F480919C0190919D01209173
:1000B0009B01FC01E455FE4F2083019690939D0126
:1000C00080939C0180919C0190919D01892BE1F08E
:1000D00080919C0190919D01FC01E455FE4F10839D
:1000E000019690939D0180939C0180919C01909139
:1000F0009D01809749F480919C0190919D01019709
:1001000090939D0180939C0180919B018A3309F01B
:10011000E8C0133209F0E5C080919C0190919D01E7
:100120000B9708F4DEC080919C0190919D01FC0129
:10013000E455FE4F1082019690939D0180939C019F
:100140008CEA91E01BD110929D0110929C0180914C
:10015000AE01803509F041C080E690E00FD180917A
:10016000AF0104D18091B00101D18091B101FED0E5
:100170008091AF0180538093AF018091B001805393
:100180008093B0018091B10180538093B10160915F
:10019000AF012091B0015091B10144E6649FB001DC
:1001A00011244AE0249F90011124620F731F650FF0
:1001B000711D7093AB016093AA0180E090E037D28B
:1001C0002DEC3CEC4CEC5DE3E3D060939E0170932E
:1001D0009F018093A0019093A1018091B201883486
:1001E00009F041C08AE690E0C9D08091B301BED049
:1001F0008091B401BBD08091B501B8D08091B3019A
:1002000080538093B3018091B40180538093B401F3
:100210008091B50180538093B5016091B301209125
:10022000B4015091B50144E6649FB00111244AE045
:10023000249F90011124620F731F650F711D70932D
:10024000AB016093AA0180E090E0F1D12DEC3CEC91
:100250004CEC5DE39DD060939E0170939F01809371
:10026000A0019093A1018091B6018235D1F582E77A
:1002700090E084D08091B70179D08091B80176D098
:100280008091B90173D08091B70180538093B701F9
:100290008091B80180538093B8018091B901805357
:1002A0008093B9016091B7012091B8015091B901D3
:1002B00044E6649FB00111244AE0249F9001112478
:1002C000620F731F650F711D882777FD8095982F2A
:1002D00054D16093A6017093A7018093A8019093D5
:1002E000A90110939B01FF91EF91BF91AF919F9155
:1002F0008F917F916F915F914F913F912F911F91BE
:100300000F900FBE0F901F901895B89AC09AB99A87
:10031000C198A59AAD9880E895E205D078948EE7CB
:1003200090E02CD0FFCF9C0140E050E064E0220F31
:10033000331F441F551F6A95D1F760E072E18AE7C9
:1003400090E086D3C901DA010197A109B109292FEB
:100350003A2F4B2F55270196A11DB11D20BD81506D
:1003600089B988E98AB986E880BD08955D9BFECF8A
:100370008CB908955F9BFECF8CB10895FC0104C039
:100380005D9BFECF31968CB980818823C9F7089593
:10039000A0E2B0E0EDECF1E07DC369837A838B836A
:1003A0009C832D833E834F835887CE010196BE01E7
:1003B000675F7F4FD5D2CE010596BE016F5E7F4F3E
:1003C000CFD29985923088F089898230C8F09430F4
:1003D00019F4823051F404C0843029F4923081F44D
:1003E00081E990E0C6C0923049F420E09A858A897C
:1003F000981321E02A87CE010996BBC0823049F4C8
:1004000020E09A858A89981321E02A8BCE014196B3
:10041000B0C02D843E844F8458886D887E888F8834
:10042000988CEE24FF248701AA24BB24650140E0B8
:1004300050E060E070E0E0E0F0E0C10181709070B9
:10044000892BE9F0E60CF71C081D191D9A01AB0178
:100450002A0D3B1D4C1D5D1D80E090E0A0E0B0E04A
:10046000E614F7040805190520F481E090E0A0E007
:10047000B0E0BA01A901480F591F6A1F7B1FAA0CDF
:10048000BB1CCC1CDD1C97FE08C081E090E0A0E006
:10049000B0E0A82AB92ACA2ADB2A3196E032F1054F
:1004A00049F0660C771C881C991C56944794379425
:1004B0002794C3CFFA85EA892B893C898B859C8553
:1004C000280F391F2E5F3F4F17C0CA0181709070EF
:1004D000892B61F016950795F794E79480E090E0FA
:1004E000A0E0B0E8E82AF92A0A2B1B2B769567953D
:1004F000579547952F5F3F4F77FDE7CF0CC0440FCF
:10050000551F661F771F17FD4160EE0CFF1C001F73
:10051000111F21503040403090E0590790E06907AA
:1005200090E4790760F32B8F3C8FDB01CA018F7752
:100530009070A070B07080349105A105B10561F490
:1005400047FD0AC0E114F1040105110529F0405CE2
:100550005F4F6F4F7F4F40781A8EFE1711F081E08A
:100560008A8F4D8F5E8F6F8F78A383E0898FCE0146
:10057000499621D1A096E2E1A9C2A8E0B0E0E2EC60
:10058000F2E091C29B01AC0183E08983DA01C901E9
:100590008827B7FD83959927AA27BB27B82E211551
:1005A00031054105510519F482E0898339C088235A
:1005B000A9F0203080E0380780E0480780E858073D
:1005C00029F460E070E080E09FEC2EC0EE24FF2470
:1005D0008701E21AF30A040B150B02C079018A01A4
:1005E0008EE1C82ED12CDC82CB82ED82FE820F837D
:1005F0001887C801B70190D001971816190684F41E
:10060000082E04C0EE0CFF1C001F111F0A94D2F725
:10061000ED82FE820F831887C81AD90ADC82CB824A
:10062000BA82CE010196C7D02896E9E058C2A8E068
:10063000B0E0ECE1F3E036C27B018C01611571059D
:100640008105910519F482E089835FC083E0898385
:100650008EE1C82ED12CDC82CB82ED82FE820F830C
:100660001887C801B70158D0FC013197F7FF3BC08C
:10067000222733272E1B3F0B57016801022E04C08F
:10068000D694C794B794A7940A94D2F740E050E068
:1006900060E070E081E090E0A0E0B0E004C0880F8E
:1006A000991FAA1FBB1F2A95D2F70197A109B1096B
:1006B0008E219F21A023B1230097A105B10521F030
:1006C00041E050E060E070E04A295B296C297D2917
:1006D0004D835E836F8378878EE190E08E1B9F0B46
:1006E0009C838B8312C0309781F00E2E04C0EE0CD9
:1006F000FF1C001F111F0A94D2F7ED82FE820F83A8
:100700001887CE1ADF0ADC82CB821A82CE010196CC
:1007100052D02896EAE0E2C1EF92FF920F931F9326
:100720007B018C0180E0E81680E0F80681E0080794
:1007300080E0180788F48FEFE816F1040105110531
:1007400031F028F088E090E0A0E0B0E017C080E051
:1007500090E0A0E0B0E012C080E0E81680E0F8068B
:1007600080E0080781E0180728F088E190E0A0E029
:10077000B0E004C080E190E0A0E0B0E020E230E032
:1007800040E050E0281B390B4A0B5B0B04C0169568
:100790000795F794E7948A95D2F7F701E756FF4F4C
:1007A0008081281B310941095109C9011F910F910D
:1007B000FF90EF900895DF92EF92FF920F931F93B7
:1007C000FC01E480F58006811781D1808081823030
:1007D00048F480E090E0A0E1B0E0E82AF92A0A2B92
:1007E0001B2BA5C0843009F49FC0823021F4EE2475
:1007F000FF24870105C0E114F1040105110519F476
:10080000E0E0F0E096C0628173819FEF6238790783
:100810000CF05BC022E83FEF261B370B2A31310575
:100820002CF020E030E040E050E02AC0B801A70101
:10083000022E04C076956795579547950A94D2F78E
:1008400081E090E0A0E0B0E004C0880F991FAA1FEB
:10085000BB1F2A95D2F70197A109B1098E219F21CB
:10086000A023B1230097A105B10521F081E090E01C
:10087000A0E0B0E09A01AB01282B392B4A2B5B2B6F
:10088000DA01C9018F779070A070B0708034910543
:10089000A105B10539F427FF09C0205C3F4F4F4F38
:1008A0005F4F04C0215C3F4F4F4F5F4FE0E0F0E0EF
:1008B0002030A0E03A07A0E04A07A0E45A0710F071
:1008C000E1E0F0E079018A0127C06038710564F544
:1008D000FB01E158FF4FD801C7018F779070A070DE
:1008E000B07080349105A105B10539F4E7FE0DC063
:1008F00080E490E0A0E0B0E004C08FE390E0A0E0EE
:10090000B0E0E80EF91E0A1F1B1F17FF05C0169561
:100910000795F794E794319687E016950795F79435
:10092000E7948A95D1F705C0EE24FF248701EFEF05
:10093000F0E06E2F679566276795902F9F77D79485
:10094000DD24D7948E2F8695492F462B582F5D296D
:10095000B701CA011F910F91FF90EF90DF900895AA
:10096000FC01DB01408151812281622F6F7770E0B1
:10097000221F2227221F9381892F880F822B282F45
:1009800030E0991F9927991F11969C931197211573
:100990003105A9F5411551056105710511F482E094
:1009A00037C082E89FEF13969C938E9312979A011B
:1009B000AB0167E0220F331F441F551F6A95D1F723
:1009C00083E08C930DC0220F331F441F551F1296D6
:1009D0008D919C911397019713969C938E931297E8
:1009E000203080E0380780E0480780E4580758F35B
:1009F00014962D933D934D935C93179708952F3F35
:100A0000310579F4411551056105710519F484E04A
:100A10008C93089564FF03C081E08C9312C01C92F4
:100A200010C02F57304013963C932E93129783E0BB
:100A30008C9387E0440F551F661F771F8A95D1F767
:100A4000706414964D935D936D937C9317970895FE
:100A5000A1E21A2EAA1BBB1BFD010DC0AA1FBB1FC2
:100A6000EE1FFF1FA217B307E407F50720F0A21B34
:100A7000B30BE40BF50B661F771F881F991F1A94A1
:100A800069F760957095809590959B01AC01BD01CB
:100A9000CF0108952F923F924F925F926F927F9273
:100AA0008F929F92AF92BF92CF92DF92EF92FF927E
:100AB0000F931F93CF93DF93CDB7DEB7CA1BDB0B2A
:100AC0000FB6F894DEBF0FBECDBF09942A883988CF
:100AD00048885F846E847D848C849B84AA84B984D6
:100AE000C884DF80EE80FD800C811B81AA81B981E2
:100AF000CE0FD11D0FB6F894DEBF0FBECDBFED01F6
:060B00000895F894FFCFF8
:100B0600506572696F64203D200048494748203D82
:100B160020005265706561746572203D2000507238
:100B26006F626E61207472616E736D69736A610AB9
:100B360000000000000000000000010202030303A1
:100B46000304040404040404040505050505050559
:100B56000505050505050505050606060606060638
:100B6600060606060606060606060606060606061F
:100B76000606060606060606060707070707070708
:100B860007070707070707070707070707070707EF
:100B960007070707070707070707070707070707DF
:100BA60007070707070707070707070707070707CF
:100BB60007070707070707070708080808080808B8
:100BC600080808080808080808080808080808089F
:100BD600080808080808080808080808080808088F
:100BE600080808080808080808080808080808087F
:100BF600080808080808080808080808080808086F
:100C0600080808080808080808080808080808085E
:100C1600080808080808080808080808080808084E
:100C2600080808080808080808080808080808083E
:0A0C3600080808080808080808006C
:00000001FF
